{"abi":[{"type":"constructor","inputs":[{"name":"_collateral","type":"address","internalType":"address"},{"name":"_treasury","type":"address","internalType":"address"}],"stateMutability":"nonpayable"},{"type":"function","name":"collateral","inputs":[],"outputs":[{"name":"","type":"address","internalType":"contract IERC20"}],"stateMutability":"view"},{"type":"function","name":"owner","inputs":[],"outputs":[{"name":"","type":"address","internalType":"address"}],"stateMutability":"view"},{"type":"function","name":"receiveFees","inputs":[{"name":"amount","type":"uint256","internalType":"uint256"}],"outputs":[],"stateMutability":"nonpayable"},{"type":"function","name":"renounceOwnership","inputs":[],"outputs":[],"stateMutability":"nonpayable"},{"type":"function","name":"setTreasury","inputs":[{"name":"_treasury","type":"address","internalType":"address"}],"outputs":[],"stateMutability":"nonpayable"},{"type":"function","name":"totalFeesReceived","inputs":[],"outputs":[{"name":"","type":"uint256","internalType":"uint256"}],"stateMutability":"view"},{"type":"function","name":"transferOwnership","inputs":[{"name":"newOwner","type":"address","internalType":"address"}],"outputs":[],"stateMutability":"nonpayable"},{"type":"function","name":"treasury","inputs":[],"outputs":[{"name":"","type":"address","internalType":"address"}],"stateMutability":"view"},{"type":"function","name":"withdraw","inputs":[],"outputs":[],"stateMutability":"nonpayable"},{"type":"event","name":"FeesReceived","inputs":[{"name":"market","type":"address","indexed":true,"internalType":"address"},{"name":"amount","type":"uint256","indexed":false,"internalType":"uint256"}],"anonymous":false},{"type":"event","name":"FeesWithdrawn","inputs":[{"name":"to","type":"address","indexed":true,"internalType":"address"},{"name":"amount","type":"uint256","indexed":false,"internalType":"uint256"}],"anonymous":false},{"type":"event","name":"OwnershipTransferred","inputs":[{"name":"previousOwner","type":"address","indexed":true,"internalType":"address"},{"name":"newOwner","type":"address","indexed":true,"internalType":"address"}],"anonymous":false},{"type":"event","name":"TreasuryUpdated","inputs":[{"name":"newTreasury","type":"address","indexed":true,"internalType":"address"}],"anonymous":false},{"type":"error","name":"OwnableInvalidOwner","inputs":[{"name":"owner","type":"address","internalType":"address"}]},{"type":"error","name":"OwnableUnauthorizedAccount","inputs":[{"name":"account","type":"address","internalType":"address"}]},{"type":"error","name":"SafeERC20FailedOperation","inputs":[{"name":"token","type":"address","internalType":"address"}]},{"type":"error","name":"ZeroAddress","inputs":[]},{"type":"error","name":"ZeroAmount","inputs":[]}],"bytecode":{"object":"0x60a060405234801561000f575f80fd5b506040516107f73803806107f783398101604081905261002e9161012a565b338061005357604051631e4fbdf760e01b81525f600482015260240160405180910390fd5b61005c816100c0565b506001600160a01b038216158061007a57506001600160a01b038116155b156100985760405163d92e233d60e01b815260040160405180910390fd5b6001600160a01b03918216608052600180546001600160a01b0319169190921617905561015b565b5f80546001600160a01b038381166001600160a01b0319831681178455604051919092169283917f8be0079c531659141344cd1fd0a4f28419497f9722a3daafe3b4186f6b6457e09190a35050565b80516001600160a01b0381168114610125575f80fd5b919050565b5f806040838503121561013b575f80fd5b6101448361010f565b91506101526020840161010f565b90509250929050565b60805161066f6101885f395f81816101150152818161018a0152818161022001526102c4015261066f5ff3fe608060405234801561000f575f80fd5b5060043610610090575f3560e01c80638da5cb5b116100635780638da5cb5b146100e95780639fbaf3de146100f9578063d8dfeb4514610110578063f0f4426014610137578063f2fde38b1461014a575f80fd5b80630420592e146100945780633ccfd60b146100a957806361d027b3146100b1578063715018a6146100e1575b5f80fd5b6100a76100a23660046105b9565b61015d565b005b6100a7610201565b6001546100c4906001600160a01b031681565b6040516001600160a01b0390911681526020015b60405180910390f35b6100a761032c565b5f546001600160a01b03166100c4565b61010260025481565b6040519081526020016100d8565b6100c47f000000000000000000000000000000000000000000000000000000000000000081565b6100a76101453660046105d0565b61033f565b6100a76101583660046105d0565b6103b7565b805f0361017d57604051631f2a200560e01b815260040160405180910390fd5b6101b26001600160a01b037f0000000000000000000000000000000000000000000000000000000000000000163330846103f9565b8060025f8282546101c391906105fd565b909155505060405181815233907f2ccfc58c2cef4ee590b5f16be0548cc54afc12e1c66a67b362b7d640fd16bb2d906020015b60405180910390a250565b610209610435565b6040516370a0823160e01b81523060048201525f907f00000000000000000000000000000000000000000000000000000000000000006001600160a01b0316906370a0823190602401602060405180830381865afa15801561026d573d5f803e3d5ffd5b505050506040513d601f19601f820116820180604052508101906102919190610622565b9050805f036102b357604051631f2a200560e01b815260040160405180910390fd5b6001546102ed906001600160a01b037f00000000000000000000000000000000000000000000000000000000000000008116911683610461565b6001546040518281526001600160a01b03909116907fc0819c13be868895eb93e40eaceb96de976442fa1d404e5c55f14bb65a8c489a906020016101f6565b610334610435565b61033d5f61049b565b565b610347610435565b6001600160a01b03811661036e5760405163d92e233d60e01b815260040160405180910390fd5b600180546001600160a01b0319166001600160a01b0383169081179091556040517f7dae230f18360d76a040c81f050aa14eb9d6dc7901b20fc5d855e2a20fe814d1905f90a250565b6103bf610435565b6001600160a01b0381166103ed57604051631e4fbdf760e01b81525f60048201526024015b60405180910390fd5b6103f68161049b565b50565b6104078484848460016104ea565b61042f57604051635274afe760e01b81526001600160a01b03851660048201526024016103e4565b50505050565b5f546001600160a01b0316331461033d5760405163118cdaa760e01b81523360048201526024016103e4565b61046e8383836001610557565b61049657604051635274afe760e01b81526001600160a01b03841660048201526024016103e4565b505050565b5f80546001600160a01b038381166001600160a01b0319831681178455604051919092169283917f8be0079c531659141344cd1fd0a4f28419497f9722a3daafe3b4186f6b6457e09190a35050565b6040516323b872dd60e01b5f8181526001600160a01b038781166004528616602452604485905291602083606481808c5af1925060015f5114831661054657838315161561053a573d5f823e3d81fd5b5f883b113d1516831692505b604052505f60605295945050505050565b60405163a9059cbb60e01b5f8181526001600160a01b038616600452602485905291602083604481808b5af1925060015f511483166105ad5783831516156105a1573d5f823e3d81fd5b5f873b113d1516831692505b60405250949350505050565b5f602082840312156105c9575f80fd5b5035919050565b5f602082840312156105e0575f80fd5b81356001600160a01b03811681146105f6575f80fd5b9392505050565b8082018082111561061c57634e487b7160e01b5f52601160045260245ffd5b92915050565b5f60208284031215610632575f80fd5b505191905056fea264697066735822122070690b6b88bb29aecb9e91a740715156d11514fc0c19663049b565a93ebe004864736f6c63430008180033","linkReferences":{}},"methodIdentifiers":{"collateral()":"d8dfeb45","owner()":"8da5cb5b","receiveFees(uint256)":"0420592e","renounceOwnership()":"715018a6","setTreasury(address)":"f0f44260","totalFeesReceived()":"9fbaf3de","transferOwnership(address)":"f2fde38b","treasury()":"61d027b3","withdraw()":"3ccfd60b"},"id":80}