{"abi":[{"type":"constructor","inputs":[],"stateMutability":"nonpayable"},{"type":"function","name":"balanceOf","inputs":[{"name":"account","type":"address","internalType":"address"},{"name":"id","type":"uint256","internalType":"uint256"}],"outputs":[{"name":"","type":"uint256","internalType":"uint256"}],"stateMutability":"view"},{"type":"function","name":"balanceOfBatch","inputs":[{"name":"accounts","type":"address[]","internalType":"address[]"},{"name":"ids","type":"uint256[]","internalType":"uint256[]"}],"outputs":[{"name":"","type":"uint256[]","internalType":"uint256[]"}],"stateMutability":"view"},{"type":"function","name":"burn","inputs":[{"name":"from","type":"address","internalType":"address"},{"name":"id","type":"uint256","internalType":"uint256"},{"name":"amount","type":"uint256","internalType":"uint256"}],"outputs":[],"stateMutability":"nonpayable"},{"type":"function","name":"isApprovedForAll","inputs":[{"name":"account","type":"address","internalType":"address"},{"name":"operator","type":"address","internalType":"address"}],"outputs":[{"name":"","type":"bool","internalType":"bool"}],"stateMutability":"view"},{"type":"function","name":"isMinter","inputs":[{"name":"","type":"address","internalType":"address"}],"outputs":[{"name":"","type":"bool","internalType":"bool"}],"stateMutability":"view"},{"type":"function","name":"mint","inputs":[{"name":"to","type":"address","internalType":"address"},{"name":"id","type":"uint256","internalType":"uint256"},{"name":"amount","type":"uint256","internalType":"uint256"}],"outputs":[],"stateMutability":"nonpayable"},{"type":"function","name":"mint","inputs":[{"name":"to","type":"address","internalType":"address"},{"name":"id","type":"uint256","internalType":"uint256"},{"name":"amount","type":"uint256","internalType":"uint256"},{"name":"data","type":"bytes","internalType":"bytes"}],"outputs":[],"stateMutability":"nonpayable"},{"type":"function","name":"owner","inputs":[],"outputs":[{"name":"","type":"address","internalType":"address"}],"stateMutability":"view"},{"type":"function","name":"renounceOwnership","inputs":[],"outputs":[],"stateMutability":"nonpayable"},{"type":"function","name":"safeBatchTransferFrom","inputs":[{"name":"from","type":"address","internalType":"address"},{"name":"to","type":"address","internalType":"address"},{"name":"ids","type":"uint256[]","internalType":"uint256[]"},{"name":"values","type":"uint256[]","internalType":"uint256[]"},{"name":"data","type":"bytes","internalType":"bytes"}],"outputs":[],"stateMutability":"nonpayable"},{"type":"function","name":"safeTransferFrom","inputs":[{"name":"from","type":"address","internalType":"address"},{"name":"to","type":"address","internalType":"address"},{"name":"id","type":"uint256","internalType":"uint256"},{"name":"value","type":"uint256","internalType":"uint256"},{"name":"data","type":"bytes","internalType":"bytes"}],"outputs":[],"stateMutability":"nonpayable"},{"type":"function","name":"setApprovalForAll","inputs":[{"name":"operator","type":"address","internalType":"address"},{"name":"approved","type":"bool","internalType":"bool"}],"outputs":[],"stateMutability":"nonpayable"},{"type":"function","name":"setMinter","inputs":[{"name":"minter","type":"address","internalType":"address"},{"name":"allowed","type":"bool","internalType":"bool"}],"outputs":[],"stateMutability":"nonpayable"},{"type":"function","name":"supportsInterface","inputs":[{"name":"interfaceId","type":"bytes4","internalType":"bytes4"}],"outputs":[{"name":"","type":"bool","internalType":"bool"}],"stateMutability":"view"},{"type":"function","name":"tokenId","inputs":[{"name":"marketId","type":"bytes32","internalType":"bytes32"},{"name":"side","type":"uint8","internalType":"uint8"}],"outputs":[{"name":"","type":"uint256","internalType":"uint256"}],"stateMutability":"pure"},{"type":"function","name":"transferOwnership","inputs":[{"name":"newOwner","type":"address","internalType":"address"}],"outputs":[],"stateMutability":"nonpayable"},{"type":"function","name":"uri","inputs":[{"name":"","type":"uint256","internalType":"uint256"}],"outputs":[{"name":"","type":"string","internalType":"string"}],"stateMutability":"view"},{"type":"event","name":"ApprovalForAll","inputs":[{"name":"account","type":"address","indexed":true,"internalType":"address"},{"name":"operator","type":"address","indexed":true,"internalType":"address"},{"name":"approved","type":"bool","indexed":false,"internalType":"bool"}],"anonymous":false},{"type":"event","name":"MinterStatusChanged","inputs":[{"name":"minter","type":"address","indexed":true,"internalType":"address"},{"name":"isMinter","type":"bool","indexed":false,"internalType":"bool"}],"anonymous":false},{"type":"event","name":"OwnershipTransferred","inputs":[{"name":"previousOwner","type":"address","indexed":true,"internalType":"address"},{"name":"newOwner","type":"address","indexed":true,"internalType":"address"}],"anonymous":false},{"type":"event","name":"TransferBatch","inputs":[{"name":"operator","type":"address","indexed":true,"internalType":"address"},{"name":"from","type":"address","indexed":true,"internalType":"address"},{"name":"to","type":"address","indexed":true,"internalType":"address"},{"name":"ids","type":"uint256[]","indexed":false,"internalType":"uint256[]"},{"name":"values","type":"uint256[]","indexed":false,"internalType":"uint256[]"}],"anonymous":false},{"type":"event","name":"TransferSingle","inputs":[{"name":"operator","type":"address","indexed":true,"internalType":"address"},{"name":"from","type":"address","indexed":true,"internalType":"address"},{"name":"to","type":"address","indexed":true,"internalType":"address"},{"name":"id","type":"uint256","indexed":false,"internalType":"uint256"},{"name":"value","type":"uint256","indexed":false,"internalType":"uint256"}],"anonymous":false},{"type":"event","name":"URI","inputs":[{"name":"value","type":"string","indexed":false,"internalType":"string"},{"name":"id","type":"uint256","indexed":true,"internalType":"uint256"}],"anonymous":false},{"type":"error","name":"ERC1155InsufficientBalance","inputs":[{"name":"sender","type":"address","internalType":"address"},{"name":"balance","type":"uint256","internalType":"uint256"},{"name":"needed","type":"uint256","internalType":"uint256"},{"name":"tokenId","type":"uint256","internalType":"uint256"}]},{"type":"error","name":"ERC1155InvalidApprover","inputs":[{"name":"approver","type":"address","internalType":"address"}]},{"type":"error","name":"ERC1155InvalidArrayLength","inputs":[{"name":"idsLength","type":"uint256","internalType":"uint256"},{"name":"valuesLength","type":"uint256","internalType":"uint256"}]},{"type":"error","name":"ERC1155InvalidOperator","inputs":[{"name":"operator","type":"address","internalType":"address"}]},{"type":"error","name":"ERC1155InvalidReceiver","inputs":[{"name":"receiver","type":"address","internalType":"address"}]},{"type":"error","name":"ERC1155InvalidSender","inputs":[{"name":"sender","type":"address","internalType":"address"}]},{"type":"error","name":"ERC1155MissingApprovalForAll","inputs":[{"name":"operator","type":"address","internalType":"address"},{"name":"owner","type":"address","internalType":"address"}]},{"type":"error","name":"InvalidSide","inputs":[]},{"type":"error","name":"NotMinter","inputs":[{"name":"sender","type":"address","internalType":"address"}]},{"type":"error","name":"OwnableInvalidOwner","inputs":[{"name":"owner","type":"address","internalType":"address"}]},{"type":"error","name":"OwnableUnauthorizedAccount","inputs":[{"name":"account","type":"address","internalType":"address"}]}],"bytecode":{"object":"0x608060405234801562000010575f80fd5b5060408051602081019091525f815233906200002c816200006d565b506001600160a01b0381166200005b57604051631e4fbdf760e01b81525f600482015260240160405180910390fd5b62000066816200007f565b506200023a565b60026200007b82826200016e565b5050565b600380546001600160a01b038381166001600160a01b0319831681179093556040519116919082907f8be0079c531659141344cd1fd0a4f28419497f9722a3daafe3b4186f6b6457e0905f90a35050565b634e487b7160e01b5f52604160045260245ffd5b600181811c90821680620000f957607f821691505b6020821081036200011857634e487b7160e01b5f52602260045260245ffd5b50919050565b601f8211156200016957805f5260205f20601f840160051c81016020851015620001455750805b601f840160051c820191505b8181101562000166575f815560010162000151565b50505b505050565b81516001600160401b038111156200018a576200018a620000d0565b620001a2816200019b8454620000e4565b846200011e565b602080601f831160018114620001d8575f8415620001c05750858301515b5f19600386901b1c1916600185901b17855562000232565b5f85815260208120601f198616915b828110156200020857888601518255948401946001909101908401620001e7565b50858210156200022657878501515f19600388901b60f8161c191681555b505060018460011b0185555b505050505050565b6115b980620002485f395ff3fe608060405234801561000f575f80fd5b5060043610610105575f3560e01c8063731133e91161009e578063cf456ae71161006e578063cf456ae714610238578063e985e9c51461024b578063f242432a14610286578063f2fde38b14610299578063f5298aca146102ac575f80fd5b8063731133e9146101d55780638da5cb5b146101e8578063a22cb46514610203578063aa271e1a14610216575f80fd5b80632eb2c2d6116100d95780632eb2c2d6146101875780634c5fef501461019a5780634e1273f4146101ad578063715018a6146101cd575f80fd5b8062fdd58e1461010957806301ffc9a71461012f5780630e89341c14610152578063156e29f614610172575b5f80fd5b61011c610117366004610eb4565b6102bf565b6040519081526020015b60405180910390f35b61014261013d366004610ef1565b6102e6565b6040519015158152602001610126565b610165610160366004610f13565b610335565b6040516101269190610f6d565b610185610180366004610f7f565b6103c7565b005b6101856101953660046110ef565b61041c565b61011c6101a8366004611192565b61043b565b6101c06101bb3660046111c5565b61046f565b60405161012691906112b9565b61018561053a565b6101856101e33660046112cb565b61054d565b6003546040516001600160a01b039091168152602001610126565b610185610211366004611357565b6105bf565b610142610224366004611385565b60046020525f908152604090205460ff1681565b610185610246366004611357565b6105ce565b61014261025936600461139e565b6001600160a01b039182165f90815260016020908152604080832093909416825291909152205460ff1690565b6101856102943660046113cf565b610634565b6101856102a7366004611385565b61064a565b6101856102ba366004610f7f565b610687565b5f818152602081815260408083206001600160a01b03861684529091529020545b92915050565b5f6001600160e01b03198216636cdb3d1360e11b148061031657506001600160e01b031982166303a24d0760e21b145b806102e057506301ffc9a760e01b6001600160e01b03198316146102e0565b6060600280546103449061142f565b80601f01602080910402602001604051908101604052809291908181526020018280546103709061142f565b80156103bb5780601f10610392576101008083540402835291602001916103bb565b820191905f5260205f20905b81548152906001019060200180831161039e57829003601f168201915b50505050509050919050565b335f9081526004602052604090205460ff166103fd57604051631b0e18f960e11b81523360048201526024015b60405180910390fd5b61041783838360405180602001604052805f8152506106c3565b505050565b610427335b86610727565b610434858585858561079f565b5050505050565b5f60018260ff161115610461576040516306fd144d60e11b815260040160405180910390fd5b5060ff1660019190911b1790565b606081518351146104a05781518351604051635b05999160e01b8152600481019290925260248201526044016103f4565b5f835167ffffffffffffffff8111156104bb576104bb610faf565b6040519080825280602002602001820160405280156104e4578160200160208202803683370190505b5090505f5b84518110156105325760208082028601015161050d906020808402870101516102bf565b82828151811061051f5761051f611467565b60209081029190910101526001016104e9565b509392505050565b6105426107ff565b61054b5f61082c565b565b335f9081526004602052604090205460ff1661057e57604051631b0e18f960e11b81523360048201526024016103f4565b61043485858585858080601f0160208091040260200160405190810160405280939291908181526020018383808284375f920191909152506106c392505050565b6105ca33838361087d565b5050565b6105d66107ff565b6001600160a01b0382165f81815260046020908152604091829020805460ff191685151590811790915591519182527f3042b80e435ae46c334b2cfec51a66d64c9a8a8af4cd0c279a124c35a09e91dd910160405180910390a25050565b61063d33610421565b610434858585858561093a565b6106526107ff565b6001600160a01b03811661067b57604051631e4fbdf760e01b81525f60048201526024016103f4565b6106848161082c565b50565b335f9081526004602052604090205460ff166106b857604051631b0e18f960e11b81523360048201526024016103f4565b6104178383836109c7565b6001600160a01b0384166106ec57604051632bfa23e760e11b81525f60048201526024016103f4565b6040805160018082526020820186905281830190815260608201859052608082019092529061071f5f8784848784610a2a565b505050505050565b816001600160a01b0316816001600160a01b03161415801561076e57506001600160a01b038082165f9081526001602090815260408083209386168352929052205460ff16155b156105ca5760405163711bec9160e11b81526001600160a01b038084166004830152821660248201526044016103f4565b6001600160a01b0384166107c857604051632bfa23e760e11b81525f60048201526024016103f4565b6001600160a01b0385166107f057604051626a0d4560e21b81525f60048201526024016103f4565b61043485858585856001610a2a565b6003546001600160a01b0316331461054b5760405163118cdaa760e01b81523360048201526024016103f4565b600380546001600160a01b038381166001600160a01b0319831681179093556040519116919082907f8be0079c531659141344cd1fd0a4f28419497f9722a3daafe3b4186f6b6457e0905f90a35050565b6001600160a01b0383166108a657604051631f18c42760e11b81525f60048201526024016103f4565b6001600160a01b0382166108ce5760405162ced3e160e81b81525f60048201526024016103f4565b6001600160a01b038381165f81815260016020908152604080832094871680845294825291829020805460ff191686151590811790915591519182527f17307eab39ab6107e8899845ad3d59bd9653f200f220920489ca2b5937696c31910160405180910390a3505050565b6001600160a01b03841661096357604051632bfa23e760e11b81525f60048201526024016103f4565b6001600160a01b03851661098b57604051626a0d4560e21b81525f60048201526024016103f4565b604080516001808252602082018690528183019081526060820185905260808201909252906109be87878484875f610a2a565b50505050505050565b6001600160a01b0383166109ef57604051626a0d4560e21b81525f60048201526024016103f4565b604080516001808252602082018590528183019081526060820184905260a082019092525f6080820181815291929161043491879185908590835b610a3686868686610a82565b6001600160a01b0385161561071f57338115610a5f57610a5a818888888888610c91565b6109be565b60208581015190850151610a77838a8a85858a610db2565b505050505050505050565b8051825114610ab15781518151604051635b05999160e01b8152600481019290925260248201526044016103f4565b335f5b8351811015610bb3576020818102858101820151908501909101516001600160a01b03881615610b65575f828152602081815260408083206001600160a01b038c16845290915290205481811015610b3f576040516303dee4c560e01b81526001600160a01b038a1660048201526024810182905260448101839052606481018490526084016103f4565b5f838152602081815260408083206001600160a01b038d16845290915290209082900390555b6001600160a01b03871615610ba9575f828152602081815260408083206001600160a01b038b16845290915281208054839290610ba390849061147b565b90915550505b5050600101610ab4565b508251600103610c335760208301515f906020840151909150856001600160a01b0316876001600160a01b0316846001600160a01b03167fc3d58168c5ae7397731d063d5bbf3d657854427343f4c083240f7aacaa2d0f628585604051610c24929190918252602082015260400190565b60405180910390a45050610434565b836001600160a01b0316856001600160a01b0316826001600160a01b03167f4a39dc06d4c0dbc64b70af90fd698a233a518aa5d07e595d983b8c0526c8f7fb8686604051610c8292919061149a565b60405180910390a45050505050565b6001600160a01b0384163b1561071f5760405163bc197c8160e01b81526001600160a01b0385169063bc197c8190610cd590899089908890889088906004016114c7565b6020604051808303815f875af1925050508015610d0f575060408051601f3d908101601f19168201909252610d0c91810190611524565b60015b610d76573d808015610d3c576040519150601f19603f3d011682016040523d82523d5f602084013e610d41565b606091505b5080515f03610d6e57604051632bfa23e760e11b81526001600160a01b03861660048201526024016103f4565b805160208201fd5b6001600160e01b0319811663bc197c8160e01b146109be57604051632bfa23e760e11b81526001600160a01b03861660048201526024016103f4565b6001600160a01b0384163b1561071f5760405163f23a6e6160e01b81526001600160a01b0385169063f23a6e6190610df6908990899088908890889060040161153f565b6020604051808303815f875af1925050508015610e30575060408051601f3d908101601f19168201909252610e2d91810190611524565b60015b610e5d573d808015610d3c576040519150601f19603f3d011682016040523d82523d5f602084013e610d41565b6001600160e01b0319811663f23a6e6160e01b146109be57604051632bfa23e760e11b81526001600160a01b03861660048201526024016103f4565b80356001600160a01b0381168114610eaf575f80fd5b919050565b5f8060408385031215610ec5575f80fd5b610ece83610e99565b946020939093013593505050565b6001600160e01b031981168114610684575f80fd5b5f60208284031215610f01575f80fd5b8135610f0c81610edc565b9392505050565b5f60208284031215610f23575f80fd5b5035919050565b5f81518084525f5b81811015610f4e57602081850181015186830182015201610f32565b505f602082860101526020601f19601f83011685010191505092915050565b602081525f610f0c6020830184610f2a565b5f805f60608486031215610f91575f80fd5b610f9a84610e99565b95602085013595506040909401359392505050565b634e487b7160e01b5f52604160045260245ffd5b604051601f8201601f1916810167ffffffffffffffff81118282101715610fec57610fec610faf565b604052919050565b5f67ffffffffffffffff82111561100d5761100d610faf565b5060051b60200190565b5f82601f830112611026575f80fd5b8135602061103b61103683610ff4565b610fc3565b8083825260208201915060208460051b87010193508684111561105c575f80fd5b602086015b848110156110785780358352918301918301611061565b509695505050505050565b5f82601f830112611092575f80fd5b813567ffffffffffffffff8111156110ac576110ac610faf565b6110bf601f8201601f1916602001610fc3565b8181528460208386010111156110d3575f80fd5b816020850160208301375f918101602001919091529392505050565b5f805f805f60a08688031215611103575f80fd5b61110c86610e99565b945061111a60208701610e99565b9350604086013567ffffffffffffffff80821115611136575f80fd5b61114289838a01611017565b94506060880135915080821115611157575f80fd5b61116389838a01611017565b93506080880135915080821115611178575f80fd5b5061118588828901611083565b9150509295509295909350565b5f80604083850312156111a3575f80fd5b82359150602083013560ff811681146111ba575f80fd5b809150509250929050565b5f80604083850312156111d6575f80fd5b823567ffffffffffffffff808211156111ed575f80fd5b818501915085601f830112611200575f80fd5b8135602061121061103683610ff4565b82815260059290921b8401810191818101908984111561122e575f80fd5b948201945b838610156112535761124486610e99565b82529482019490820190611233565b96505086013592505080821115611268575f80fd5b5061127585828601611017565b9150509250929050565b5f815180845260208085019450602084015f5b838110156112ae57815187529582019590820190600101611292565b509495945050505050565b602081525f610f0c602083018461127f565b5f805f805f608086880312156112df575f80fd5b6112e886610e99565b94506020860135935060408601359250606086013567ffffffffffffffff80821115611312575f80fd5b818801915088601f830112611325575f80fd5b813581811115611333575f80fd5b896020828501011115611344575f80fd5b9699959850939650602001949392505050565b5f8060408385031215611368575f80fd5b61137183610e99565b9150602083013580151581146111ba575f80fd5b5f60208284031215611395575f80fd5b610f0c82610e99565b5f80604083850312156113af575f80fd5b6113b883610e99565b91506113c660208401610e99565b90509250929050565b5f805f805f60a086880312156113e3575f80fd5b6113ec86610e99565b94506113fa60208701610e99565b93506040860135925060608601359150608086013567ffffffffffffffff811115611423575f80fd5b61118588828901611083565b600181811c9082168061144357607f821691505b60208210810361146157634e487b7160e01b5f52602260045260245ffd5b50919050565b634e487b7160e01b5f52603260045260245ffd5b808201808211156102e057634e487b7160e01b5f52601160045260245ffd5b604081525f6114ac604083018561127f565b82810360208401526114be818561127f565b95945050505050565b6001600160a01b0386811682528516602082015260a0604082018190525f906114f29083018661127f565b8281036060840152611504818661127f565b905082810360808401526115188185610f2a565b98975050505050505050565b5f60208284031215611534575f80fd5b8151610f0c81610edc565b6001600160a01b03868116825285166020820152604081018490526060810183905260a0608082018190525f9061157890830184610f2a565b97965050505050505056fea264697066735822122033064026526d3c35040a38958516c8e288e978fa6989704eec82ebc1fa1f020164736f6c63430008180033","linkReferences":{}},"methodIdentifiers":{"balanceOf(address,uint256)":"00fdd58e","balanceOfBatch(address[],uint256[])":"4e1273f4","burn(address,uint256,uint256)":"f5298aca","isApprovedForAll(address,address)":"e985e9c5","isMinter(address)":"aa271e1a","mint(address,uint256,uint256)":"156e29f6","mint(address,uint256,uint256,bytes)":"731133e9","owner()":"8da5cb5b","renounceOwnership()":"715018a6","safeBatchTransferFrom(address,address,uint256[],uint256[],bytes)":"2eb2c2d6","safeTransferFrom(address,address,uint256,uint256,bytes)":"f242432a","setApprovalForAll(address,bool)":"a22cb465","setMinter(address,bool)":"cf456ae7","supportsInterface(bytes4)":"01ffc9a7","tokenId(bytes32,uint8)":"4c5fef50","transferOwnership(address)":"f2fde38b","uri(uint256)":"0e89341c"},"id":82}