{"abi":[{"type":"constructor","inputs":[{"name":"_marketId","type":"bytes32","internalType":"bytes32"},{"name":"_collateral","type":"address","internalType":"address"},{"name":"_positions","type":"address","internalType":"address"},{"name":"_feeRouter","type":"address","internalType":"address"},{"name":"_resolver","type":"address","internalType":"address"},{"name":"_closeTime","type":"uint64","internalType":"uint64"},{"name":"_risk","type":"tuple","internalType":"struct RiskParams","components":[{"name":"bufferBps","type":"uint16","internalType":"uint16"},{"name":"feeBps","type":"uint16","internalType":"uint16"},{"name":"maxTradeSizeUSDC6","type":"uint256","internalType":"uint256"},{"name":"maxNetExposureBps","type":"uint16","internalType":"uint16"}]},{"name":"_bUSDC6","type":"uint256","internalType":"uint256"}],"stateMutability":"nonpayable"},{"type":"function","name":"b","inputs":[],"outputs":[{"name":"","type":"uint256","internalType":"uint256"}],"stateMutability":"view"},{"type":"function","name":"buy","inputs":[{"name":"side","type":"uint8","internalType":"enum Side"},{"name":"collateralInUSDC6","type":"uint256","internalType":"uint256"},{"name":"minSharesOutUSDC6","type":"uint256","internalType":"uint256"}],"outputs":[{"name":"sharesOutUSDC6","type":"uint256","internalType":"uint256"}],"stateMutability":"nonpayable"},{"type":"function","name":"cancel","inputs":[{"name":"","type":"bytes32","internalType":"bytes32"}],"outputs":[],"stateMutability":"nonpayable"},{"type":"function","name":"cancelRefundPerShare1e18","inputs":[],"outputs":[{"name":"","type":"uint256","internalType":"uint256"}],"stateMutability":"view"},{"type":"function","name":"closeTime","inputs":[],"outputs":[{"name":"","type":"uint64","internalType":"uint64"}],"stateMutability":"view"},{"type":"function","name":"collateral","inputs":[],"outputs":[{"name":"","type":"address","internalType":"contract IERC20"}],"stateMutability":"view"},{"type":"function","name":"feeRouter","inputs":[],"outputs":[{"name":"","type":"address","internalType":"contract IFeeRouter"}],"stateMutability":"view"},{"type":"function","name":"feesAccruedUSDC6","inputs":[],"outputs":[{"name":"","type":"uint256","internalType":"uint256"}],"stateMutability":"view"},{"type":"function","name":"liabilityUSDC6","inputs":[],"outputs":[{"name":"","type":"uint256","internalType":"uint256"}],"stateMutability":"view"},{"type":"function","name":"lock","inputs":[],"outputs":[],"stateMutability":"nonpayable"},{"type":"function","name":"marketId","inputs":[],"outputs":[{"name":"","type":"bytes32","internalType":"bytes32"}],"stateMutability":"view"},{"type":"function","name":"pause","inputs":[],"outputs":[],"stateMutability":"nonpayable"},{"type":"function","name":"paused","inputs":[],"outputs":[{"name":"","type":"bool","internalType":"bool"}],"stateMutability":"view"},{"type":"function","name":"positions","inputs":[],"outputs":[{"name":"","type":"address","internalType":"contract IPositions"}],"stateMutability":"view"},{"type":"function","name":"priceYes1e18","inputs":[],"outputs":[{"name":"","type":"uint256","internalType":"uint256"}],"stateMutability":"view"},{"type":"function","name":"qN","inputs":[],"outputs":[{"name":"","type":"uint256","internalType":"uint256"}],"stateMutability":"view"},{"type":"function","name":"qY","inputs":[],"outputs":[{"name":"","type":"uint256","internalType":"uint256"}],"stateMutability":"view"},{"type":"function","name":"quoteBuy","inputs":[{"name":"side","type":"uint8","internalType":"enum Side"},{"name":"collateralInUSDC6","type":"uint256","internalType":"uint256"}],"outputs":[{"name":"sharesOutUSDC6","type":"uint256","internalType":"uint256"},{"name":"feeUSDC6","type":"uint256","internalType":"uint256"},{"name":"pYesAfter1e18","type":"uint256","internalType":"uint256"}],"stateMutability":"view"},{"type":"function","name":"quoteSell","inputs":[{"name":"side","type":"uint8","internalType":"enum Side"},{"name":"sharesInUSDC6","type":"uint256","internalType":"uint256"}],"outputs":[{"name":"collateralOutUSDC6","type":"uint256","internalType":"uint256"},{"name":"feeUSDC6","type":"uint256","internalType":"uint256"},{"name":"pYesAfter1e18","type":"uint256","internalType":"uint256"}],"stateMutability":"view"},{"type":"function","name":"redeem","inputs":[{"name":"side","type":"uint8","internalType":"enum Side"},{"name":"sharesInUSDC6","type":"uint256","internalType":"uint256"}],"outputs":[{"name":"collateralOutUSDC6","type":"uint256","internalType":"uint256"}],"stateMutability":"nonpayable"},{"type":"function","name":"requiredReserveUSDC6","inputs":[],"outputs":[{"name":"","type":"uint256","internalType":"uint256"}],"stateMutability":"view"},{"type":"function","name":"resolve","inputs":[{"name":"r","type":"uint8","internalType":"enum Result"},{"name":"","type":"bytes32","internalType":"bytes32"}],"outputs":[],"stateMutability":"nonpayable"},{"type":"function","name":"resolver","inputs":[],"outputs":[{"name":"","type":"address","internalType":"address"}],"stateMutability":"view"},{"type":"function","name":"result","inputs":[],"outputs":[{"name":"","type":"uint8","internalType":"enum Result"}],"stateMutability":"view"},{"type":"function","name":"risk","inputs":[],"outputs":[{"name":"bufferBps","type":"uint16","internalType":"uint16"},{"name":"feeBps","type":"uint16","internalType":"uint16"},{"name":"maxTradeSizeUSDC6","type":"uint256","internalType":"uint256"},{"name":"maxNetExposureBps","type":"uint16","internalType":"uint16"}],"stateMutability":"view"},{"type":"function","name":"sell","inputs":[{"name":"side","type":"uint8","internalType":"enum Side"},{"name":"sharesInUSDC6","type":"uint256","internalType":"uint256"},{"name":"minCollateralOutUSDC6","type":"uint256","internalType":"uint256"}],"outputs":[{"name":"collateralOutUSDC6","type":"uint256","internalType":"uint256"}],"stateMutability":"nonpayable"},{"type":"function","name":"state","inputs":[],"outputs":[{"name":"","type":"uint8","internalType":"enum State"}],"stateMutability":"view"},{"type":"function","name":"sweepFees","inputs":[],"outputs":[{"name":"sweptUSDC6","type":"uint256","internalType":"uint256"}],"stateMutability":"nonpayable"},{"type":"function","name":"sweepableUSDC6","inputs":[],"outputs":[{"name":"","type":"uint256","internalType":"uint256"}],"stateMutability":"view"},{"type":"function","name":"unpause","inputs":[],"outputs":[],"stateMutability":"nonpayable"},{"type":"event","name":"FeesSwept","inputs":[{"name":"amount","type":"uint256","indexed":false,"internalType":"uint256"}],"anonymous":false},{"type":"event","name":"Paused","inputs":[{"name":"account","type":"address","indexed":false,"internalType":"address"}],"anonymous":false},{"type":"event","name":"Redeemed","inputs":[{"name":"user","type":"address","indexed":true,"internalType":"address"},{"name":"side","type":"uint8","indexed":false,"internalType":"uint8"},{"name":"sharesIn","type":"uint256","indexed":false,"internalType":"uint256"},{"name":"collateralOut","type":"uint256","indexed":false,"internalType":"uint256"}],"anonymous":false},{"type":"event","name":"StateChanged","inputs":[{"name":"from","type":"uint8","indexed":false,"internalType":"enum State"},{"name":"to","type":"uint8","indexed":false,"internalType":"enum State"}],"anonymous":false},{"type":"event","name":"TradeExecuted","inputs":[{"name":"trader","type":"address","indexed":true,"internalType":"address"},{"name":"side","type":"uint8","indexed":false,"internalType":"uint8"},{"name":"isBuy","type":"bool","indexed":false,"internalType":"bool"},{"name":"collateral","type":"uint256","indexed":false,"internalType":"uint256"},{"name":"shares","type":"uint256","indexed":false,"internalType":"uint256"},{"name":"fee","type":"uint256","indexed":false,"internalType":"uint256"}],"anonymous":false},{"type":"event","name":"Unpaused","inputs":[{"name":"account","type":"address","indexed":false,"internalType":"address"}],"anonymous":false},{"type":"error","name":"CannotCancelResolved","inputs":[]},{"type":"error","name":"EnforcedPause","inputs":[]},{"type":"error","name":"ExpectedPause","inputs":[]},{"type":"error","name":"ExposureExceeded","inputs":[]},{"type":"error","name":"InsufficientShares","inputs":[]},{"type":"error","name":"InvalidResult","inputs":[]},{"type":"error","name":"LMSR_InvalidB","inputs":[]},{"type":"error","name":"NotLocked","inputs":[]},{"type":"error","name":"NotOpen","inputs":[]},{"type":"error","name":"NotResolved","inputs":[]},{"type":"error","name":"PRBMath_MulDiv18_Overflow","inputs":[{"name":"x","type":"uint256","internalType":"uint256"},{"name":"y","type":"uint256","internalType":"uint256"}]},{"type":"error","name":"PRBMath_MulDiv_Overflow","inputs":[{"name":"x","type":"uint256","internalType":"uint256"},{"name":"y","type":"uint256","internalType":"uint256"},{"name":"denominator","type":"uint256","internalType":"uint256"}]},{"type":"error","name":"PRBMath_SD59x18_Div_InputTooSmall","inputs":[]},{"type":"error","name":"PRBMath_SD59x18_Div_Overflow","inputs":[{"name":"x","type":"int256","internalType":"SD59x18"},{"name":"y","type":"int256","internalType":"SD59x18"}]},{"type":"error","name":"PRBMath_SD59x18_Exp2_InputTooBig","inputs":[{"name":"x","type":"int256","internalType":"SD59x18"}]},{"type":"error","name":"PRBMath_SD59x18_Exp_InputTooBig","inputs":[{"name":"x","type":"int256","internalType":"SD59x18"}]},{"type":"error","name":"PRBMath_SD59x18_IntoUint256_Underflow","inputs":[{"name":"x","type":"int256","internalType":"SD59x18"}]},{"type":"error","name":"PRBMath_SD59x18_Log_InputTooSmall","inputs":[{"name":"x","type":"int256","internalType":"SD59x18"}]},{"type":"error","name":"PRBMath_SD59x18_Mul_InputTooSmall","inputs":[]},{"type":"error","name":"PRBMath_SD59x18_Mul_Overflow","inputs":[{"name":"x","type":"int256","internalType":"SD59x18"},{"name":"y","type":"int256","internalType":"SD59x18"}]},{"type":"error","name":"ReentrancyGuardReentrantCall","inputs":[]},{"type":"error","name":"SafeERC20FailedOperation","inputs":[{"name":"token","type":"address","internalType":"address"}]},{"type":"error","name":"Slippage","inputs":[]},{"type":"error","name":"TooEarly","inputs":[]},{"type":"error","name":"TooLarge","inputs":[]},{"type":"error","name":"Unauthorized","inputs":[]},{"type":"error","name":"ZeroAddress","inputs":[]},{"type":"error","name":"ZeroAmount","inputs":[]}],"bytecode":{"object":"0x61016060405234801562000011575f80fd5b50604051620030b4380380620030b48339810160408190526200003491620001b4565b60017f9b779b17422d0df92223018b32b4d1fa46e071723d6817e2486d003becc55f00556001600160a01b03871615806200007657506001600160a01b038616155b15620000955760405163d92e233d60e01b815260040160405180910390fd5b6001600160a01b0385161580620000b357506001600160a01b038416155b15620000d25760405163d92e233d60e01b815260040160405180910390fd5b805f03620000f35760405163165b025760e31b815260040160405180910390fd5b6080979097526001600160a01b0395861660a05293851660c05291841660e052909216610100526001600160401b0390911661012052805160018054602084015161ffff908116620100000263ffffffff19909216938116939093171790556040820151600255606090910151600380549190921661ffff19909116179055610140526004805460ff19169055620002ce565b80516001600160a01b03811681146200019d575f80fd5b919050565b805161ffff811681146200019d575f80fd5b5f805f805f805f80888a03610160811215620001ce575f80fd5b89519850620001e060208b0162000186565b9750620001f060408b0162000186565b96506200020060608b0162000186565b95506200021060808b0162000186565b60a08b01519095506001600160401b0380821682146200022e575f80fd5b819550608060bf198401121562000243575f80fd5b604051925060808301915082821081831117156200026f57634e487b7160e01b5f52604160045260245ffd5b506040526200028160c08b01620001a2565b81526200029160e08b01620001a2565b60208201526101008a01516040820152620002b06101208b01620001a2565b60608201528092505061014089015190509295985092959890939650565b60805160a05160c05160e051610100516101205161014051612cf3620003c15f395f81816102b8015281816104fa01528181610af9015281816112c4015261198001525f8181610306015261168001525f81816101da0152818161058c0152818161093401528181610c2401528181611021015261160b01525f818161048001528181611145015261118001525f81816103e40152818161066c015281816107d601528181610d6901528181610f07015261151a01525f81816104460152818161087a01528181610b8501528181610f7b01528181611123015261149301525f818161039301526119500152612cf35ff3fe608060405234801561000f575f80fd5b50600436106101d1575f3560e01c806371b07a10116100fe578063c19d93fb1161009e578063dd5d4ce41161006e578063dd5d4ce414610468578063f29ebf611461047b578063f6d956df146104a2578063f83d08ba146104b5575f80fd5b8063c19d93fb14610419578063c4d252f514610426578063d113b95c14610439578063d8dfeb4514610441575f80fd5b806390b8eb22116100d957806390b8eb22146103ce578063abe01b63146103d7578063ba5b7982146103df578063bb482f9614610406575f80fd5b806371b07a10146103b55780637bbab2b8146103bd5780638456cb59146103c6575f80fd5b80634df7e3d011610174578063627749e611610144578063627749e61461030157806365372147146103415780636a01e09a146103605780636ed71ede1461038e575f80fd5b80634df7e3d0146102b357806351684c3f146102da5780635c975abb146102e35780635ea418ea146102f8575f80fd5b80633f4ba83a116101af5780633f4ba83a14610237578063426a0c881461024157806346280a801461028d57806346ef4788146102a0575f80fd5b806304f3bcec146101d55780631ff64d5c1461021957806321200f001461022f575b5f80fd5b6101fc7f000000000000000000000000000000000000000000000000000000000000000081565b6040516001600160a01b0390911681526020015b60405180910390f35b6102216104bd565b604051908152602001610210565b6102216104f3565b61023f610581565b005b6001546002546003546102639261ffff80821693620100009092048116921684565b6040805161ffff958616815293851660208501528301919091529091166060820152608001610210565b61022161029b366004612a6c565b6105d3565b61023f6102ae366004612a9c565b610929565b6102217f000000000000000000000000000000000000000000000000000000000000000081565b61022160085481565b5f5460ff166040519015158152602001610210565b61022160055481565b6103287f000000000000000000000000000000000000000000000000000000000000000081565b60405167ffffffffffffffff9091168152602001610210565b60045461035390610100900460ff1681565b6040516102109190612afc565b61037361036e366004612b0f565b610a6e565b60408051938452602084019290925290820152606001610210565b6102217f000000000000000000000000000000000000000000000000000000000000000081565b610221610b64565b61022160065481565b61023f610c19565b61022160075481565b610221610c69565b6101fc7f000000000000000000000000000000000000000000000000000000000000000081565b610221610414366004612b0f565b610cb2565b6004546103539060ff1681565b61023f610434366004612b29565b611016565b6102216110eb565b6101fc7f000000000000000000000000000000000000000000000000000000000000000081565b610373610476366004612b0f565b611219565b6101fc7f000000000000000000000000000000000000000000000000000000000000000081565b6102216104b0366004612a6c565b611330565b61023f611600565b6001546008545f91612710916104d79161ffff1690612b54565b6104e19190612b7f565b6008546104ee9190612b92565b905090565b5f8061051e7f000000000000000000000000000000000000000000000000000000000000000061171a565b90505f61053d61053861053260055461171a565b84611730565b611802565b90505f61055761053861055160065461171a565b85611730565b90505f61056d836105688585611878565b611730565b905061057881611886565b94505050505090565b336001600160a01b037f000000000000000000000000000000000000000000000000000000000000000016146105c9576040516282b42960e81b815260040160405180910390fd5b6105d16118ac565b565b5f6105dc6118fd565b6105e4611918565b5f60045460ff1660038111156105fc576105fc612ac9565b1461061a57604051631bb5f5b360e31b815260040160405180910390fd5b825f0361063a57604051631f2a200560e01b815260040160405180910390fd5b5f6106448561193b565b604051627eeac760e11b8152336004820152602481018290529091505f906001600160a01b037f0000000000000000000000000000000000000000000000000000000000000000169062fdd58e90604401602060405180830381865afa1580156106b0573d5f803e3d5ffd5b505050506040513d601f19601f820116820180604052508101906106d49190612ba5565b9050848110156106f757604051633999656760e01b815260040160405180910390fd5b5f610706600554600654611979565b90505f8061071489896119ef565b915091505f6107238383611979565b90505f64e8d4a5100061073e6107398785611a32565b611886565b6107489190612b7f565b6001549091505f90612710906107689062010000900461ffff1684612b54565b6107729190612b7f565b905061077e8183612bbc565b9850898910156107a1576040516307dd37f760e41b815260040160405180910390fd5b60058590556006849055604051637a94c56560e11b815233600482015260248101899052604481018c90526001600160a01b037f0000000000000000000000000000000000000000000000000000000000000000169063f5298aca906064015f604051808303815f87803b158015610817575f80fd5b505af1158015610829573d5f803e3d5ffd5b505050508060075f82825461083e9190612b92565b90915550506008548911610868578860085f82825461085d9190612bbc565b9091555061086d9050565b5f6008555b6108a16001600160a01b037f000000000000000000000000000000000000000000000000000000000000000016338b611a40565b337f4d667a7bfdb1ad0031baa8733220093872cc888af37b319ec7f06457b7ae81018d60018111156108d5576108d5612ac9565b6040805160ff90921682525f602083015281018c9052606081018e90526080810184905260a00160405180910390a2505050505050505061092260015f80516020612c9e83398151915255565b9392505050565b336001600160a01b037f00000000000000000000000000000000000000000000000000000000000000001614610971576040516282b42960e81b815260040160405180910390fd5b600160045460ff16600381111561098a5761098a612ac9565b146109a857604051631834e26560e01b815260040160405180910390fd5b5f8260038111156109bb576109bb612ac9565b14806109d8575060038260038111156109d6576109d6612ac9565b145b156109f55760405162f8b33f60e71b815260040160405180910390fd5b60048054600260ff1982168117835560ff8216928592909161ffff1990911617610100836003811115610a2a57610a2a612ac9565b02179055507fe8a97ea87e4388fa22d496b95a8ed5ced6717f49790318de2b928aaf37a021d8816002604051610a61929190612bcf565b60405180910390a1505050565b5f805f835f03610a9157604051631f2a200560e01b815260040160405180910390fd5b60015461271090610aac9062010000900461ffff1686612b54565b610ab69190612b7f565b91505f610ac38386612bbc565b90505f610ad4600554600654611979565b9050610ae1878383611a7a565b94505f80610aef8988611b22565b915091505f610b1d7f000000000000000000000000000000000000000000000000000000000000000061171a565b90505f610b2f6105386105328661171a565b90505f610b416105386105518661171a565b9050610b54610739836105688585611878565b9750505050505050509250925092565b6040516370a0823160e01b81523060048201525f9081906001600160a01b037f000000000000000000000000000000000000000000000000000000000000000016906370a0823190602401602060405180830381865afa158015610bca573d5f803e3d5ffd5b505050506040513d601f19601f82011682018060405250810190610bee9190612ba5565b90505f610bf96104bd565b9050808211610c08575f610c12565b610c128183612bbc565b9250505090565b336001600160a01b037f00000000000000000000000000000000000000000000000000000000000000001614610c61576040516282b42960e81b815260040160405180910390fd5b6105d1611b54565b5f80600654600554610c7b9190612b92565b9050805f03610c8b575f91505090565b80600854670de0b6b3a7640000610ca29190612b54565b610cac9190612b7f565b91505090565b5f610cbb6118fd565b600260045460ff166003811115610cd457610cd4612ac9565b14158015610cf95750600360045460ff166003811115610cf657610cf6612ac9565b14155b15610d1757604051639f4a648960e01b815260040160405180910390fd5b815f03610d3757604051631f2a200560e01b815260040160405180910390fd5b5f610d418461193b565b604051627eeac760e11b8152336004820152602481018290529091505f906001600160a01b037f0000000000000000000000000000000000000000000000000000000000000000169062fdd58e90604401602060405180830381865afa158015610dad573d5f803e3d5ffd5b505050506040513d601f19601f82011682018060405250810190610dd19190612ba5565b905083811015610df457604051633999656760e01b815260040160405180910390fd5b600360045460ff166003811115610e0d57610e0d612ac9565b03610e53575f600654600554610e239190612b92565b90505f8111610e32575f610e4b565b8060085486610e419190612b54565b610e4b9190612b7f565b935050610ee4565b5f6001600454610100900460ff166003811115610e7257610e72612ac9565b148015610e8f57505f866001811115610e8d57610e8d612ac9565b145b80610ed157506002600454610100900460ff166003811115610eb357610eb3612ac9565b148015610ed157506001866001811115610ecf57610ecf612ac9565b145b905080610ede575f610ee0565b845b9350505b604051637a94c56560e11b815233600482015260248101839052604481018590527f00000000000000000000000000000000000000000000000000000000000000006001600160a01b03169063f5298aca906064015f604051808303815f87803b158015610f50575f80fd5b505af1158015610f62573d5f803e3d5ffd5b505050505f831115610fa257610fa26001600160a01b037f0000000000000000000000000000000000000000000000000000000000000000163385611a40565b337ff8b564b1b7f5bb9fea632ddf0036474f68d8cec99f4b2e96a29be779871e059a866001811115610fd657610fd6612ac9565b6040805160ff909216825260208201889052810186905260600160405180910390a2505061101060015f80516020612c9e83398151915255565b92915050565b336001600160a01b037f0000000000000000000000000000000000000000000000000000000000000000161461105e576040516282b42960e81b815260040160405180910390fd5b600260045460ff16600381111561107757611077612ac9565b0361109557604051638e70039360e01b815260040160405180910390fd5b6004805461030361ffff1982161790915560405160ff909116907fe8a97ea87e4388fa22d496b95a8ed5ced6717f49790318de2b928aaf37a021d8906110df908390600390612bcf565b60405180910390a15050565b5f6110f4610b64565b9050805f0361111657604051631f2a200560e01b815260040160405180910390fd5b61116a6001600160a01b037f0000000000000000000000000000000000000000000000000000000000000000167f000000000000000000000000000000000000000000000000000000000000000083611b90565b6040516302102c9760e11b8152600481018290527f00000000000000000000000000000000000000000000000000000000000000006001600160a01b031690630420592e906024015f604051808303815f87803b1580156111c9575f80fd5b505af11580156111db573d5f803e3d5ffd5b50505f60075550506040518181527fc1d94a7c9f6a6bc92f1ca076189cb2bccd07ce7193ac9423e7a3f9fde840139d9060200160405180910390a190565b5f805f835f0361123c57604051631f2a200560e01b815260040160405180910390fd5b5f61124b600554600654611979565b90505f8061125988886119ef565b915091505f6112688383611979565b90505f64e8d4a5100061127e6107398785611a32565b6112889190612b7f565b600154909150612710906112a69062010000900461ffff1683612b54565b6112b09190612b7f565b96506112bc8782612bbc565b97505f6112e87f000000000000000000000000000000000000000000000000000000000000000061171a565b90505f6112fa6105386105328861171a565b90505f61130c6105386105518861171a565b905061131f610739836105688585611878565b985050505050505050509250925092565b5f6113396118fd565b611341611918565b5f60045460ff16600381111561135957611359612ac9565b1461137757604051631bb5f5b360e31b815260040160405180910390fd5b825f0361139757604051631f2a200560e01b815260040160405180910390fd5b6002548311156113ba5760405163218e0a0760e01b815260040160405180910390fd5b6001545f90612710906113d79062010000900461ffff1686612b54565b6113e19190612b7f565b90505f6113ee8286612bbc565b90505f6113ff600554600654611979565b905061140c878383611a7a565b93508484101561142f576040516307dd37f760e41b815260040160405180910390fd5b61143b87856001611be2565b5f87600181111561144e5761144e612ac9565b0361146f578360055f8282546114649190612b92565b909155506114869050565b8360065f8282546114809190612b92565b90915550505b6114bb6001600160a01b037f000000000000000000000000000000000000000000000000000000000000000016333089611cea565b8260075f8282546114cc9190612b92565b925050819055508160085f8282546114e49190612b92565b909155505f90506114f48861193b565b604051630ab714fb60e11b815233600482015260248101829052604481018790529091507f00000000000000000000000000000000000000000000000000000000000000006001600160a01b03169063156e29f6906064015f604051808303815f87803b158015611563575f80fd5b505af1158015611575573d5f803e3d5ffd5b50505050336001600160a01b03167f4d667a7bfdb1ad0031baa8733220093872cc888af37b319ec7f06457b7ae81018960018111156115b6576115b6612ac9565b6040805160ff90921682526001602083015281018a9052606081018890526080810187905260a00160405180910390a25050505061092260015f80516020612c9e83398151915255565b336001600160a01b037f00000000000000000000000000000000000000000000000000000000000000001614611648576040516282b42960e81b815260040160405180910390fd5b5f60045460ff16600381111561166057611660612ac9565b1461167e57604051631bb5f5b360e31b815260040160405180910390fd5b7f000000000000000000000000000000000000000000000000000000000000000067ffffffffffffffff164210156116c95760405163085de62560e01b815260040160405180910390fd5b60048054600160ff198216811790925560405160ff909116917fe8a97ea87e4388fa22d496b95a8ed5ced6717f49790318de2b928aaf37a021d89161170f918491612bcf565b60405180910390a150565b5f61101061172d8364e8d4a51000612bf5565b90565b5f8282600160ff1b8214806117485750600160ff1b81145b15611766576040516309fe2b4560e41b815260040160405180910390fd5b5f805f84126117755783611779565b835f035b91505f8312611788578261178c565b825f035b90505f6117a283670de0b6b3a764000084611d26565b90506001600160ff1b038111156117db5760405163d49c26b360e01b815260048101899052602481018890526044015b60405180910390fd5b5f19858518136117f5816117f157825f0361172d565b8290565b9998505050505050505050565b5f8168023f2fa8f6da5b9d311981121561181e57505f92915050565b680736ea4425c11ac63081131561184b5760405163ca7ec0c560e01b8152600481018490526024016117d2565b6714057b7ef767814f810261187061186b670de0b6b3a7640000835b0590565b611df5565b949350505050565b5f61092261172d8385612c24565b5f818181121561101057604051632463f3d560e01b8152600481018490526024016117d2565b6118b4611e9c565b5f805460ff191690557f5db9ee0a495bf2e6ff9c91a7834c1ba4fdd244a5e8aa4e537bd38aeae4b073aa335b6040516001600160a01b03909116815260200160405180910390a1565b611905611ebe565b60025f80516020612c9e83398151915255565b5f5460ff16156105d15760405163d93c066560e01b815260040160405180910390fd5b5f81600181111561194e5761194e612ac9565b7f000000000000000000000000000000000000000000000000000000000000000060011b1792915050565b5f806119a47f000000000000000000000000000000000000000000000000000000000000000061171a565b90505f6119b66105386105328761171a565b90505f6119c86105386105518761171a565b90506119e5836119e06119db8585611878565b611eed565b611f23565b9695505050505050565b6005546006545f846001811115611a0857611a08612ac9565b03611a1e57611a178383612bbc565b9150611a2b565b611a288382612bbc565b90505b9250929050565b5f61092261172d8385612c4b565b611a4d8383836001611fc0565b611a7557604051635274afe760e01b81526001600160a01b03841660048201526024016117d2565b505050565b5f8080611a88856003612b54565b90505f611a948661171a565b90505f5b6040811015611b16575f6002611aae8587612b92565b611ab89190612b7f565b9050848103611ac75750611b16565b5f80611ad38b84611b22565b915091505f611ae28383611979565b90505f611aef828c611a32565b905080871215611b0157849750611b05565b8498505b505060019093019250611a98915050565b50919695505050505050565b6005546006545f846001811115611b3b57611b3b612ac9565b03611b4a57611a178383612b92565b611a288382612b92565b611b5c611918565b5f805460ff191660011790557f62e78cea01bee320cd4e420270b5ea74000d11b0c9f74754ebdbfc544b05a2586118e03390565b611b9c8383835f612022565b611a7557611bad83835f6001612022565b611bd557604051635274afe760e01b81526001600160a01b03841660048201526024016117d2565b611a4d8383836001612022565b5f81611bee575f611bf0565b825b600654600554611c009190612b92565b611c0a9190612b92565b9050805f03611c195750505050565b5f8080866001811115611c2e57611c2e612ac9565b03611c595783611c3e575f611c40565b845b600554611c4d9190612b92565b91506006549050611c7b565b83611c64575f611c66565b845b600654611c739190612b92565b915060055490505b5f818311611c9257611c8d8383612bbc565b611c9c565b611c9c8284612bbc565b90505f84611cac83612710612b54565b611cb69190612b7f565b60035490915061ffff16811115611ce05760405163146c994960e01b815260040160405180910390fd5b5050505050505050565b611cf884848484600161206c565b611d2057604051635274afe760e01b81526001600160a01b03851660048201526024016117d2565b50505050565b5f80805f19858709858702925082811083820303915050805f03611d5d57838281611d5357611d53612b6b565b0492505050610922565b838110611d8e57604051630c740aef60e31b81526004810187905260248101869052604481018590526064016117d2565b5f8486880960026001871981018816978890046003810283188082028403028082028403028082028403028082028403028082028403029081029092039091025f889003889004909101858311909403939093029303949094049190911702949350505050565b5f8181811215611e4f5768033dd1780914b9711419811215611e1957505f92915050565b611e48611e2b61172d61186b845f0390565b6ec097ce7bc90715b34b9f10000000008161186757611867612b6b565b9150611e96565b680a688906bd8affffff811315611e7b57604051626c1a0560e31b8152600481018490526024016117d2565b670de0b6b3a7640000604082901b0561187061172d826120d9565b50919050565b5f5460ff166105d157604051638dfc202b60e01b815260040160405180910390fd5b5f80516020612c9e833981519152546002036105d157604051633ee5aeb560e01b815260040160405180910390fd5b5f6110106714057b7ef767814f670de0b6b3a7640000611f0f61172d86612839565b611f199190612bf5565b61172d9190612c71565b5f8282600160ff1b821480611f3b5750600160ff1b81145b15611f595760405163a6070c2560e01b815260040160405180910390fd5b5f805f8412611f685783611f6c565b835f035b91505f8312611f7b5782611f7f565b825f035b90505f611f8c83836129a7565b90506001600160ff1b038111156117db5760405163120b5b4360e01b815260048101899052602481018890526044016117d2565b60405163a9059cbb60e01b5f8181526001600160a01b038616600452602485905291602083604481808b5af1925060015f5114831661201657838315161561200a573d5f823e3d81fd5b5f873b113d1516831692505b60405250949350505050565b60405163095ea7b360e01b5f8181526001600160a01b038616600452602485905291602083604481808b5af1925060015f5114831661201657838315161561200a573d5f823e3d81fd5b6040516323b872dd60e01b5f8181526001600160a01b038781166004528616602452604485905291602083606481808c5af1925060015f511483166120c85783831516156120bc573d5f823e3d81fd5b5f883b113d1516831692505b604052505f60605295945050505050565b600160bf1b67ff000000000000008216156121e65767800000000000000082161561210d5768016a09e667f3bcc9090260401c5b67400000000000000082161561212c576801306fe0a31b7152df0260401c5b67200000000000000082161561214b576801172b83c7d517adce0260401c5b67100000000000000082161561216a5768010b5586cf9890f62a0260401c5b670800000000000000821615612189576801059b0d31585743ae0260401c5b6704000000000000008216156121a857680102c9a3e778060ee70260401c5b6702000000000000008216156121c75768010163da9fb33356d80260401c5b6701000000000000008216156121e657680100b1afa5abcbed610260401c5b66ff0000000000008216156122e55766800000000000008216156122135768010058c86da1c09ea20260401c5b6640000000000000821615612231576801002c605e2e8cec500260401c5b662000000000000082161561224f57680100162f3904051fa10260401c5b661000000000000082161561226d576801000b175effdc76ba0260401c5b660800000000000082161561228b57680100058ba01fb9f96d0260401c5b66040000000000008216156122a95768010002c5cc37da94920260401c5b66020000000000008216156122c7576801000162e525ee05470260401c5b66010000000000008216156122e55768010000b17255775c040260401c5b65ff00000000008216156123db5765800000000000821615612310576801000058b91b5bc9ae0260401c5b6540000000000082161561232d57680100002c5c89d5ec6d0260401c5b6520000000000082161561234a5768010000162e43f4f8310260401c5b6510000000000082161561236757680100000b1721bcfc9a0260401c5b650800000000008216156123845768010000058b90cf1e6e0260401c5b650400000000008216156123a1576801000002c5c863b73f0260401c5b650200000000008216156123be57680100000162e430e5a20260401c5b650100000000008216156123db576801000000b1721835510260401c5b64ff000000008216156124c85764800000000082161561240457680100000058b90c0b490260401c5b6440000000008216156124205768010000002c5c8601cc0260401c5b64200000000082161561243c576801000000162e42fff00260401c5b6410000000008216156124585768010000000b17217fbb0260401c5b640800000000821615612474576801000000058b90bfce0260401c5b64040000000082161561249057680100000002c5c85fe30260401c5b6402000000008216156124ac5768010000000162e42ff10260401c5b6401000000008216156124c857680100000000b17217f80260401c5b63ff0000008216156125ac5763800000008216156124ef5768010000000058b90bfc0260401c5b634000000082161561250a576801000000002c5c85fe0260401c5b632000000082161561252557680100000000162e42ff0260401c5b6310000000821615612540576801000000000b17217f0260401c5b630800000082161561255b57680100000000058b90c00260401c5b63040000008216156125765768010000000002c5c8600260401c5b6302000000821615612591576801000000000162e4300260401c5b63010000008216156125ac5768010000000000b172180260401c5b62ff000082161561268757628000008216156125d1576801000000000058b90c0260401c5b624000008216156125eb57680100000000002c5c860260401c5b622000008216156126055768010000000000162e430260401c5b6210000082161561261f57680100000000000b17210260401c5b620800008216156126395768010000000000058b910260401c5b62040000821615612653576801000000000002c5c80260401c5b6202000082161561266d57680100000000000162e40260401c5b62010000821615612687576801000000000000b1720260401c5b61ff00821615612759576180008216156126aa57680100000000000058b90260401c5b6140008216156126c35768010000000000002c5d0260401c5b6120008216156126dc576801000000000000162e0260401c5b6110008216156126f55768010000000000000b170260401c5b61080082161561270e576801000000000000058c0260401c5b61040082161561272757680100000000000002c60260401c5b61020082161561274057680100000000000001630260401c5b61010082161561275957680100000000000000b10260401c5b60ff82161561282257608082161561277a57680100000000000000590260401c5b6040821615612792576801000000000000002c0260401c5b60208216156127aa57680100000000000000160260401c5b60108216156127c2576801000000000000000b0260401c5b60088216156127da57680100000000000000060260401c5b60048216156127f257680100000000000000030260401c5b600282161561280a57680100000000000000010260401c5b600182161561282257680100000000000000010260401c5b670de0b6b3a76400000260409190911c60bf031c90565b5f8181811361285e5760405163059b101b60e01b8152600481018490526024016117d2565b5f670de0b6b3a764000082126128765750600161289b565b505f19816ec097ce7bc90715b34b9f10000000008161289757612897612b6b565b0591505b5f612926670de0b6b3a7640000840560016fffffffffffffffffffffffffffffffff821160071b91821c67ffffffffffffffff811160061b90811c63ffffffff811160051b90811c61ffff811160041b90811c60ff8111600390811b91821c600f811160021b90811c918211871b91821c969096119490961792909217171791909117919091171790565b9050670de0b6b3a7640000810283821d670de0b6b3a763ffff198101612953575091909102949350505050565b671bc16d674ec800006706f05b59d3b200005b5f81131561299857670de0b6b3a7640000838002059250818312612990579283019260019290921d915b60011d612966565b50505091909102949350505050565b5f80805f19848609848602925082811083820303915050805f036129d85750670de0b6b3a764000090049050611010565b670de0b6b3a76400008110612a0a57604051635173648d60e01b815260048101869052602481018590526044016117d2565b5f670de0b6b3a764000085870962040000818503049310909103600160ee1b02919091177faccb18165bd6fe31ae1cf318dc5b51eee0e1ba569b88cd74c1773b91fac106690291505092915050565b803560028110612a67575f80fd5b919050565b5f805f60608486031215612a7e575f80fd5b612a8784612a59565b95602085013595506040909401359392505050565b5f8060408385031215612aad575f80fd5b823560048110612abb575f80fd5b946020939093013593505050565b634e487b7160e01b5f52602160045260245ffd5b60048110612af957634e487b7160e01b5f52602160045260245ffd5b50565b60208101612b0983612add565b91905290565b5f8060408385031215612b20575f80fd5b612abb83612a59565b5f60208284031215612b39575f80fd5b5035919050565b634e487b7160e01b5f52601160045260245ffd5b808202811582820484141761101057611010612b40565b634e487b7160e01b5f52601260045260245ffd5b5f82612b8d57612b8d612b6b565b500490565b8082018082111561101057611010612b40565b5f60208284031215612bb5575f80fd5b5051919050565b8181038181111561101057611010612b40565b60408101612bdc84612add565b838252612be883612add565b8260208301529392505050565b8082025f8212600160ff1b84141615612c1057612c10612b40565b818105831482151761101057611010612b40565b8082018281125f831280158216821582161715612c4357612c43612b40565b505092915050565b8181035f831280158383131683831282161715612c6a57612c6a612b40565b5092915050565b5f82612c7f57612c7f612b6b565b600160ff1b82145f1984141615612c9857612c98612b40565b50059056fe9b779b17422d0df92223018b32b4d1fa46e071723d6817e2486d003becc55f00a26469706673582212208cccd143f9f7c84a6cff825edd313755917a851fee4c7a216e2510f3b49d830064736f6c63430008180033","linkReferences":{}},"methodIdentifiers":{"b()":"4df7e3d0","buy(uint8,uint256,uint256)":"f6d956df","cancel(bytes32)":"c4d252f5","cancelRefundPerShare1e18()":"abe01b63","closeTime()":"627749e6","collateral()":"d8dfeb45","feeRouter()":"f29ebf61","feesAccruedUSDC6()":"90b8eb22","liabilityUSDC6()":"51684c3f","lock()":"f83d08ba","marketId()":"6ed71ede","pause()":"8456cb59","paused()":"5c975abb","positions()":"ba5b7982","priceYes1e18()":"21200f00","qN()":"7bbab2b8","qY()":"5ea418ea","quoteBuy(uint8,uint256)":"6a01e09a","quoteSell(uint8,uint256)":"dd5d4ce4","redeem(uint8,uint256)":"bb482f96","requiredReserveUSDC6()":"1ff64d5c","resolve(uint8,bytes32)":"46ef4788","resolver()":"04f3bcec","result()":"65372147","risk()":"426a0c88","sell(uint8,uint256,uint256)":"46280a80","state()":"c19d93fb","sweepFees()":"d113b95c","sweepableUSDC6()":"71b07a10","unpause()":"3f4ba83a"},"id":85}